:0300000002097082
:0C097000787FE4F6D8FD75812C0209B7F1
:100B0500E4F508F509120CB51209FC120B507FA487
:100B1500120C068E088F09E52924FE60191460263B
:100B2500240270E4E52C64017005F52C120D1AAF52
:100B350009120A5B80D2E52C64017005F52C120DB3
:0B0B45001A120B5080C2120D1A80BD66
:0B0D0F00EF1FAC0670011E4C70F622B6
:100C2B00D3EF9400EE940040147D6E7C00ED1D70AC
:0D0C3B00011CED4C70F7EF1F70E61E80E30A
:010C48002289
:0C0D0200012900012A00012C00012B0037
:1009FC0020B1157F0A7E00120C2B20B151752901F4
:100A0C00752C0120B14880FB20B0157F0A7E0012A6
:100A1C000C2B20B039752902752C0120B03080FBCD
:100A2C0020B22B7F0A7E00120C2B20B20B752903EF
:100A3C00752C0120B21880FB20B3137F0A7E0012A4
:0F0A4C000C2B20B309752904752C0130B3FD2242
:1007690075907F85900A530A0FE50A640F604A7FE6
:100779000A7E00120C2B85900A530A0FE50A640FB2
:100789006037752B0185900AE50A2485601024FEDF
:10079900601114601324077012E4F52A800D752A7C
:1007A900018008752A028003752A03E50A640F602F
:1007B9000885900A530A0F80F27590BF85900A53F5
:1007C9000A0FE50A640F604A7F0A7E00120C2B8526
:1007D900900A530A0FE50A640F6037752B0185905B
:1007E9000AE50A2445601024FE60111460132407E9
:1007F9007012752A04800D752A058008752A0680ED
:1008090003752A07E50A640F600885900A530A0FE1
:1008190080F27590DF85900A530A0FE50A640F602C
:100829004A7F0A7E00120C2B85900A530A0FE50AAB
:10083900640F6037752B0185900AE50A242560103D
:1008490024FE601114601324077012752A08800DA4
:10085900752A098008752A0A8003752A0BE50A6436
:100869000F600885900A530A0F80F27590EF859002
:100879000A530A0FE50A640F604A7F0A7E00120CC8
:100889002B85900A530A0FE50A640F6037752B010F
:1008990085900AE50A2415601024FE60111460137E
:1008A90024077012752A0C800D752A0D8008752A87
:1008B9000E8003752A0FE50A640F600885900A53B4
:0408C9000A0F80F2A0
:0108CD002208
:100C67005468652076616C7565206F662041443A4B
:0C0C770000303132333435363738390064
:100C8300C2A6C2A5C2A78F807F057E00120C2BD2FD
:0B0C9300A77F057E00120C2BC2A722D9
:0A0BE100AB17AA18A919120456FF59
:100BEB00D2A6C2A5C2A78F807F057E00120C2BD286
:0B0BFB00A77F057E00120C2BC2A72272
:100CB500C2A77F38120C837F0C120C837F06120C9F
:060CC500837F01020C8395
:050D1A007F01020C83C3
:0808CE008F168B178A18891997
:1008D600E4F51AEDFF7E00D3940174809480400302
:1008E60002096FE516940F74809480507CC3EF94D0
:1008F60001748094805039AB17AA18A919120456AE
:100906006067C374109516FFE51AC39FE51A500673
:10091600248025168004251624B0FF120C83120BA2
:10092600E174012519F519E43518F518051A80C77B
:10093600AB17AA18A919120456602EC3741095167F
:10094600FFE51AC39FE51A500624C0251680042524
:10095600162470FF120C83120BE174012519F51988
:09096600E43518F518051A80C7E4
:01096F002265
:020A5B008F0A00
:100A5D00780B7C007D007BFF7A0C79787E007F0B14
:100A6D001204307BFF7A0C7967E4FDFF1208CE7F0C
:100A7D00C4120C83E50A75F06484240BF8E6FF12AA
:100A8D000BEBE50A75F00A8475F00A84740B25F0FA
:100A9D00F8E6FF120BEBE50A75F00A84740B25F0EE
:060AAD00F8E6FF020BEB6E
:100B9100C2B600E4FEEEC39408748094805018EF4E
:100BA100C4131313540124FF92B4EF25E0FFC2B61E
:070BB10000D2B6000E80DE49
:010BB800221A
:100BB900E4FFFEC2B600FDEDC3940C74809480502E
:100BC90016EF25E0FFEE33FED2B600C2B600A2B79B
:070BD900E43342070D80E048
:010BE00022F2
:100C0600E4FDFCC2B6C2B5120B917F06EFD3940089
:100C16007480948040031F80F3D2B600C2B60012DF
:040C26000BB9D2B57F
:010C2A0022A7
:0F0CF300303132333435363738392B2D2A2F3DF7
:100AB300E52A640F70167F01120C83E4F51DF51E01
:100AC300F51BF51CF524F527F528F525C3E52A9430
:100AD3000A74809480502AE52364017006F51BF59F
:100AE3001CF523AE1BAF1C7C007D0A12046FEF259F
:100AF3002AF51CEC3EF51BE52A900CF393FF120B31
:020B0300EB22E3
:100CCB000524E4F525F528F527851B1D851C1EF548
:040CDB001BF51C22C7
:100CDF000527E4F525F528F524851B1D851C1EF534
:040CEF001BF51C22B3
:100C9E000528E4F525F527F524851B1D851C1E75F5
:070CAE002301F51BF51C22D8
:100C49000525E4F528F527F524AC1BAD1C1202A6F1
:0E0C59008F228E218D208C1FE4F51BF51C22AE
:1004E400E5246048E51C251EF51EE51B351DF51D9C
:1004F4007FCF120C837F04120C83E51E451D6023FD
:10050400AE1DAF1E7C007D0A120481ED2430FF1263
:100514000BEBAE1DAF1E7C007D0A1204818E1D8F75
:100524001E80D77F3D120BEBE4F52422E5277003F0
:100534000205DE7FCF120C837F04120C83D3E51EE9
:10054400951CE51D951B4035E51E951CF51EE51D06
:10055400951BF51DE51E451D6077AE1DAF1E7C0085
:100564007D0A120481ED2430FF120BEBAE1DAF1E89
:100574007C007D0A1204818E1D8F1E80D7C3E51E68
:10058400951CE51D951B503AC3E51C951EF51CE50D
:100594001B951DF51BE51C451B6023AE1BAF1C7C86
:1005A400007D0A120481ED2430FF120BEBAE1BAF69
:1005B4001C7C007D0A1204818E1B8F1C80D77F2D2A
:1005C400800CE51EB51C0AE51DB51B057F30120B1A
:1005D400EB7F3D120BEBE4F52722E528604BAE1DC3
:1005E400AF1EAC1BAD1C12046F8E1D8F1E7FCF126D
:1005F4000C837F04120C83E51E451D6023AE1DAFE2
:100604001E7C007D0A120481ED2430FF120BEBAE38
:100614001DAF1E7C007D0A1204818E1D8F1E80D7A3
:100624007F3D120BEBE4F52822E5257003020768F1
:10063400AC1BAD1CE41202A6A804A905AA06AB07CC
:10064400AF22AE21AD20AC1F1202041202DF8F0ACA
:10065400850A0BAC1BAD1CE41202A6A804A905AACA
:1006640006AB07AF22AE21AD20AC1F120204C004BA
:10067400C005C006C007AC0AE41202ABA804A90571
:10068400AA06AB07D007D006D005D0041200068F07
:10069400158E148D138C12E4FFFE7DC87C42AB15BD
:1006A400AA14A913A8121200FB1202DF8E1D8F1EBA
:1006B400E4FFFE7D7A7C44AB15AA14A913A8121298
:1006C40000FB1202DF8E0E8F0F7C007D0A12048164
:1006D4008C0C8D0DD3E50D9404E50C9400400805B5
:1006E4001EE51E7002051D7FCF120C837F04120CC1
:1006F40083E51E451D602B0511E51170020510AE42
:100704001DAF1E7C007D0A120481ED2430FF120B04
:10071400EBAE1DAF1E7C007D0A1204818E1D8F1E60
:1007240080CFE51164014510700A7F30120BEBE4B1
:10073400F510F5117F2E120BEBE50A601675F00A21
:1007440084E5F02430FF120BEBE50A75F00A84F51A
:100754000A80E6E50B70057F30120BEB7F3D120B30
:04076400EBE4F525A8
:01076800226E
:100B5000120769E52B64017037F52BE52A24F5604F
:100B6000121460141460161460202404701F120CF8
:100B7000CB800D120CDF8008120C9E8003120C49F2
:100B8000E52A900CF393FF020BEB0204E4120AB384
:010B90002242
:1000030002034BE86480F8E933E83360110460F0DD
:10001300ED33EC337009E8FCE9FDEAFEEBFF220463
:1000230060DED3EB9FEA9EE99DE8C2E78CF0C2F75E
:1000330095F0400CE8CCF8E9CDF9EACEFAEBCFFB2A
:1000430012031685D0F05804700320D5B3E804706A
:10005300075002B2D502035592D5EC0460F7E4CC05
:10006300C0E0C398F8603B94186008400DD0E0FBF3
:1000730002032DE4FBFAC9FC8028E830E406E4C956
:10008300FBE4CAFCE830E305E4C9CACBFCE8540747
:100093006010F8C3E913F9EA13FAEB13FBEC13FC52
:1000A300D8F130F52FC3E49CFCEF9BFFEE9AFEEDF5
:1000B30099FDD0E0FBEF4E4D4C701222DB0302039F
:1000C30052EC2CFCEF33FFEE33FEED33FDED30E766
:1000D300EB02032DEF2BFFEE3AFEED39FDD0E0FBF3
:1000E30050130BBB0003020355ED13FDEE13FEEF9C
:0800F30013FFEC13FC02032DC6
:1000FB00EC4D6011E8497017ED33EC3304600DE4FF
:10010B00FCFFFEFD22E933E8330470F802034B12C7
:10011B00031658046009E4CC2481500628500902C8
:10012B000355284003020352C0E0EB4A7044B980E8
:10013B0006D0E0FB020341EF4E701CBD8008EBFFC5
:10014B00EAFEE9FD80EBE98DF0A4FEE5F00201E4A7
:10015B00E9CDF9EAFEEBFFEF89F0A4FCE5F0CE89DF
:10016B00F0A42EFFE435F0CD89F0A42DFEE435F09C
:10017B008067EF4E7005BD80D780C3EF8BF0A4ACCA
:10018B00F0EE8BF0A42CFCE435F0F8EF8AF0A42C05
:10019B00E5F038FCE433CB8DF0A42CFCE5F03BF818
:1001AB00EE8AF0A42CFCE5F038F8E433CF89F0A408
:1001BB002CFCE5F038CF3400CE89F0A42FFFE5F00E
:1001CB003EFEE433C98DF0A42EFEE5F039CD8AF066
:1001DB00A42FFFE5F03EFEE43DFD33D0E0FB5007DE
:1001EB000BBB000F020355EC2CFCEF33FFEE33FE81
:0601FB00ED33FD02032DAF
:10020100020355EC5D046005E85904700302034BD9
:10021100120316580460F6EC4860F2EC7004FDFE1F
:10022100FF22C860DB2481C85009C39860025006D0
:100231000203529850CAF582E9294B4A7005AB82F4
:1002410002034175F0007C1A7880C3EF9BEE9AEDB2
:1002510099400DC3EF9BFFEE9AFEED99FDE842F048
:10026100DC23ACF0D0E0FFD0E0FED0E0FDAB82209B
:10027100E7101BEB60BAEC2CFCEF33FFEE33FEED25
:1002810033FD02032DE803F830E705C0F075F000F7
:10029100EF2FFFEE33FEED33FD40B830E7C280AA09
:1002A10075F020800E75F010800575F0087D007ED8
:1002B100007F003392D530D5031204D6EC334010C1
:1002C100EF33FFEE33FEED33FDEC33FCD5F0ED22E1
:0E02D100E5F0247EA2D513CC92E7CDCEFF221D
:1002DF00EDD2E7CD33EC3392D524814006E4FFFE17
:1002EF00FDFC22FCE4CFCECDCC24E0501174FF8076
:1002FF00EDC3CC13CCCD13CDCE13CECF13CF047013
:07030F00F030D5DE0204D638
:10031600E9D2E7C933E833F892D5EDD2E7CD33EC2D
:0703260033FC5002B2D522A6
:10032D00EC30E7100FBF000C0EBE00080DBD000431
:10033D000BEB6014A2D5EB13FCED92E7FD2274FFDD
:10034D00FCFDFEFF22E480F8A2D574FF13FC7D8036
:03035D00E480EF4A
:10097C00020B05E493A3F8E493A34003F68001F281
:10098C0008DFF48029E493A3F85407240CC8C3337C
:10099C00C4540F4420C8834004F456800146F6DF4B
:1009AC00E4800B0102040810204080900D02E47ECC
:1009BC00019360BCA3FF543F30E509541FFEE49340
:1009CC00A360010ECF54C025E060A840B8E493A307
:1009DC00FAE493A3F8E493A3C8C582C8CAC583CA32
:1009EC00F0A3C8C582C8CAC583CADFE9DEE780BEEA
:010D0E0000E4
:10036000E709F608DFFA8046E709F208DFFA803E7F
:1003700088828C83E709F0A3DFFA8032E309F6086C
:10038000DFFA8078E309F208DFFA807088828C83D4
:10039000E309F0A3DFFA806489828A83E0A3F60888
:1003A000DFFA805889828A83E0A3F208DFFA804C62
:1003B00080D280FA80C680D4806980F28033801039
:1003C00080A680EA809A80A880DA80E280CA8033A2
:1003D00089828A83ECFAE493A3C8C582C8CCC5831A
:1003E000CCF0A3C8C582C8CCC583CCDFE9DEE780EA
:1003F0000D89828A83E493A3F608DFF9ECFAA9F069
:10040000EDFB2289828A83ECFAE0A3C8C582C8CCBE
:10041000C583CCF0A3C8C582C8CCC583CCDFEADED7
:10042000E880DB89828A83E493A3F208DFF980CC39
:1004300088F0EF60010E4E60C388F0ED2402B40432
:100440000050B9F582EB2402B4040050AF232345D9
:0604500082239003B0734B
:10045600BB010689828A83E0225002E722BBFE02A4
:09046600E32289828A83E49322D7
:10046F00EF8DF0A4A8F0CF8CF0A428CE8DF0A42EA1
:02047F00FE225B
:10048100BC000BBE0029EF8DF084FFADF022E4CC5F
:10049100F875F008EF2FFFEE33FEEC33FCEE9DEC28
:1004A100984005FCEE9DFE0FD5F0E9E4CEFD22ED6E
:1004B100F8F5F0EE8420D21CFEADF075F008EF2FB8
:1004C100FFED33FD4007985006D5F0F222C398FDA9
:0504D1000FD5F0EA2246
:0E04D600C3E49FFFE49EFEE49DFDE49CFC2237
:00000001FF
