:030000000200C437
:0C00C400787FE4F6D8FD75810E02010B78
:1001CD003F065B4F666D7D077F6F777C395E79717A
:0801DD001C1814100C080400AA
:03000300010905EB
:10000E001201FCD2A9120150EE704FEF24FE6023B4
:10001E0014603914603F2403704074052509F509F6
:10002E0030B1FDC3E509943C74809480402C750971
:10003E003C802774FB2509F50930B0FDD3E5099402
:10004E0005748094805013750905800ED28CD2AF42
:10005E0020B20780FBC28C30B3FDE50975F00A842F
:10006E00F50BE50975F00A8485F00C9001DEE4933A
:10007E00F5A07580FFE50B1201A59001DFE493F565
:10008E00A07580FFE50C1201A5E5096003020013BF
:10009E00750D03750EE8C28CB2951201ABE50E1507
:1000AE000E7002150DD3E50E9400E50D940050E888
:0300BE00750905BC
:0300C10002001327
:1001500020B1127F0A7E001201AF20B147750A015B
:100160007E007F012220B0127F0A7E001201AF20A4
:10017000B032750A027E007F022220B2277F0A7EFB
:10018000001201AF20B208750A037E007F0322200F
:10019000B3127F0A7E001201AF20B308750A047EF5
:0501A000007F04222293
:0A01FC00758901758C4C758AD022BC
:03000B000201E50A
:1001E500C0E0758C4C758AD00508E5086414700468
:0701F500F5081509D0E03206
:0A01A5009001CD93F5807F017E00EC
:1001AF00D3EF9400EE940040147D6E7C00ED1D7033
:0D01BF00011CED4C70F7EF1F70E61E80E391
:0101CC002210
:1000D00002000EE493A3F8E493A34003F68001F238
:1000E00008DFF48029E493A3F85407240CC8C33331
:1000F000C4540F4420C8834004F456800146F6DF00
:10010000E4800B0102040810204080900003E47E8C
:10011000019360BCA3FF543F30E509541FFEE493F4
:10012000A360010ECF54C025E060A840B8E493A3BB
:10013000FAE493A3F8E493A3C8C582C8CAC583CAE6
:10014000F0A3C8C582C8CAC583CADFE9DEE780BE9E
:0100060000F9
:00000001FF
