:03000000020F5A92
:0C0F5A00787FE4F6D8FD758168020FA1D5
:1015FB00534F4C41522053595354454D453A2000BB
:10160B0044455349474E45442042593A20004D41E9
:09161B00472E5700044414542426
:06000300010A05010B5A81
:1013C400758911E50A75F00AA424CDFFE5F034010E
:1013D400FEC3E49FFDE49EF58CAF058F8AE50B7593
:1013E400F00AA424CDFFE5F03401FEC3E49FFDE43C
:1013F4009EF58DAF058F8BD2AFD2A9D2ABD28CD252
:021404008E2236
:100FE600E4F5211216F27FE87E03121730E4FDFFC6
:100FF6001216D07F647E001217307BFF7A1579FBBC
:101006007529107D097F0C1213807BFF7A16790BE8
:1010160075290C7D0DE4FF1213807BFF7A16791972
:1010260075290C7D0F7F501213807FE87E031217FF
:04103600301213C49D
:10103A00E4F522C3E5229405748094805020E522C9
:10104A0090161F93FF121569AC07E4120B8AE5226A
:10105A0025E025E0240CF8120DC2052280D5120DD8
:01106A00CEB7
:02106B0080CD36
:03000B000211B827
:1011B800C0E0C0F0C0D075D000C005C006C007E5CB
:1011C80008601EE50A75F00AA424CDFFE5F0340195
:1011D800FEC3E49FFDE49EF58CAF058F8AD2A08004
:1011E8001FE50A75F00AA4FFC374339FFF74469580
:1011F800F0FEC3E49FFDE49EF58CAF058F8AC2A084
:101208006308FFD007D006D005D0D0D0F0D0E032A8
:03001B00021218B6
:10121800C0E0C0F0C0D075D000C005C006C007E56A
:1012280009601EE50B75F00AA424CDFFE5F0340132
:10123800FEC3E49FFDE49EF58DAF058F8BD2A180A0
:101248001FE50B75F00AA4FFC374339FFF7446951E
:10125800F0FEC3E49FFDE49EF58DAF058F8BC2A120
:101268006309FFD007D006D005D0D0D0F0D0E03247
:100DCE00AB13AA12A911A810AF0FAE0EAD0DAC0C3D
:100DDE00120A12120BBE12000ED3EF940AEE6480AA
:100DEE0094804041AB13AA12A911A810AF0FAE0EFA
:100DFE00AD0DAC0C120A12E4FBFA79207841120BFD
:100E0E00075012150AC3E50A940874809480501591
:100E1E00750A088010050AD3E50A945074809480F0
:100E2E004003750A50AB1BAA1AA919A818AF17AE22
:100E3E0016AD15AC14120A12120BBE12000ED3EF21
:100E4E00940AEE648094804040AB1BAA1AA919A89C
:100E5E0018AF17AE16AD15AC14120A12E4FBFA79E0
:100E6E00207841120B075011150BC3E50B94057436
:100E7E008094805014750B0522050BD3E50B94AFAF
:0A0E8E00748094804003750BAF22BE
:05181E00D290D29122DE
:09180E00D290D291C291C2902245
:07181700D290C291D2912290
:10171200E4FEEEC3940874809480500DEF25E0FF40
:0D172200C2909291D2900E80E9C290D291B7
:01172F002297
:10166A00C290D291E4FEEEC3940874809480501123
:10167A00D290EF25E0FDA291E4334DFFC2900E8097
:01168A00E57A
:01168B00223C
:1017D500C290300104D2918002C291D290C290226F
:0B168C00121712121697AF051217126A
:10169700E4FFD29030910DEFC394FA748094805098
:0616A700030F80F0C29069
:0116AD00221A
:10179900AC0712180E7FA0121712121697AF041277
:0517A900168C02181768
:0216AE00AD0786
:1016B00012180E7FA012168C12180E7FA11217128C
:1016C00012169712166AA20092011217D502181765
:0B180300EF1FAC0670011E4C70F622B7
:10173000D3EF9400EE940040147D6E7C00ED1D709C
:0D174000011CED4C70F7EF1F70E61E80E3FA
:01174D002279
:1015CC007FA7EFD394007480948040217EABEED340
:1015DC0094007480948040127D10EDD3940074803C
:0E15EC00948040031D80F31E80E41F80D50014
:0115FA0022CE
:021569008F24CD
:10156B0012180E7F90121712121697AF2412171221
:10157B0012169712181712180E7F911217121216B5
:10158B009712166A8F25D2011217D5121817AF258D
:01159B00222D
:1016D0008F248D2512180E7FA0121712121697AFA5
:1016E00024121712121697AF25121712121697020C
:0216F0001817C9
:021624008F67CE
:1016260012180E7FA0121712121697AF6712171212
:1016360012169712180E7FA112171212169702167B
:011646006A39
:101406008F4F8D508B518A52895312180E7FA0121E
:101416001712121697AF4F8019AF501550EF601A7A
:10142600AB510553E553AA527002055214F9120C3A
:0D1436003FFF12171212169780DF021817E1
:10132F008B548A5589568D5712180E7FA01217129B
:10133F00121697AF5712171212169712180E7FA187
:10134F00121712121697AF581558EF602112166A1E
:10135F00AB540556E556AA557002055514F9EF1210
:10136F000C85E55824FFB392011217D580D80218C7
:01137F001756
:10001E000000000000000000002F0000000007009C
:10002E00070000147F147F1400242A7F2A12006216
:10003E0064081323003649552250000005030000C2
:10004E0000001C224100000041221C000014083E4A
:10005E0008140008083E0808000000A06000000810
:10006E000808080800006060000000201008040264
:10007E00003E5149453E0000427F40000042615122
:10008E004946002141454B31001814127F100027BC
:10009E0045454539003C4A4949300001710905037F
:1000AE0000364949493600064949291E00003636B0
:1000BE000000000056360000000814224100001413
:1000CE0014141414000041221408000201510906F0
:1000DE0000324959513E007C1211127C007F494971
:1000EE004936003E41414122007F4141221C007FA2
:1000FE0049494941007F09090901003E4149497AB0
:10010E00007F0808087F0000417F41000020404129
:10011E003F01007F08142241007F40404040007F95
:10012E00020C027F007F0408107F003E4141413ED9
:10013E00007F09090906003E4151215E007F091921
:10014E0029460046494949310001017F0101003F1E
:10015E004040403F001F2040201F003F4038403F9E
:10016E000063140814630007087008070061514902
:10017E00454300007F41410000552A552A55000095
:10018E0041417F0000040201020400404040404013
:10019E00000001020400002054545478007F4844AB
:1001AE00443800384444442000384444487F0038E2
:1001BE005454541800087E0901020018A4A4A47C0B
:1001CE00007F080404780000447D400000408084D5
:1001DE007D00007F102844000000417F4000007C1D
:1001EE0004180478007C0804047800384444443829
:1001FE0000FC242424180018242418FC007C080475
:10020E00040800485454542000043F444020003C4D
:10021E004040207C001C2040201C003C4030403CD4
:10022E00004428102844001CA0A0A07C0044645464
:10023E004C441414141414140000000000000000A8
:10024E000000000000000000000000F800000000A8
:10025E00000000333000000000100C06100C0600E9
:10026E00000000000000000040C07840C078400050
:10027E00043F04043F040400007088FC08300000B2
:10028E00001820FF211E0000F008F000E01800000A
:10029E0000211C031E211E0000F0088870000000C3
:1002AE001E2123241927211010160E000000000015
:1002BE000000000000000000000000E01804020032
:1002CE00000000071820400000020418E0000000A3
:1002DE000040201807000000404080F080404000A1
:1002EE000202010F01020200000000F000000000F7
:1002FE000101011F010101000000000000000000CB
:10030E0080B070000000000000000000000000003F
:10031E0000010101010101010000000000000000C8
:10032E000030300000000000000000008060180463
:10033E00006018060100000000E010080810E00040
:10034E00000F102020100F00001010F80000000009
:10035E000020203F20200000007008080888700050
:10036E0000302824222130000030088888483000D0
:10037E000018202020110E000000C02010F80000F0
:10038E0000070424243F240000F808888808080089
:10039E000019212020110E0000E01088881800009E
:1003AE00000F112020110E0000380808C838080070
:1003BE000000003F000000000070880808887000F0
:1003CE00001C222121221C0000E010080810E00071
:1003DE000000312222110F00000000C0C0000000FA
:1003EE00000000303000000000000080000000001F
:1003FE000000806000000000000080402010080017
:10040E0000010204081020004040404040404000DF
:10041E0004040404040404000008102040800000BA
:10042E000020100804020100007048080808F000BF
:10043E000000003036010000C030C828E810E0008F
:10044E000718272423140B000000C038E00000001A
:10045E00203C23020227382008F888888870000084
:10046E00203F202020110E00C03008080808380058
:10047E00071820202010080008F808080810E000CF
:10048E00203F202020100F0008F88888E808100070
:10049E00203F20202320180008F88888E808100044
:1004AE00203F200003000000C0300808083800007C
:1004BE0007182020221E020008F808000008F8087D
:1004CE00203F210101213F20000808F80808000004
:1004DE000020203F2020000000000808F808080037
:1004EE00C08080807F00000008F888C028180800AF
:1004FE00203F20012638200008F8080000000000E8
:10050E00203F20202020300008F8F800F8F80800DE
:10051E00203F003F003F200008F830C00008F808D8
:10052E00203F200007183F00E01008080810E000E8
:10053E000F10202020100F0008F808080808F000FF
:10054E00203F210101010000E01008080810E00022
:10055E000F18242438504F0008F8888888887000B7
:10056E00203F2000030C3020007088080808380057
:10057E000038202121221C00180808F8080818004D
:10058E000000203F2000000008F808000008F808CE
:10059E00001F202020201F000878880000C838087F
:1005AE00000007380E010000F80800F80008F800F7
:1005BE00033C0700073C0300081868808068180891
:1005CE0020302C03032C30200838C800C83808000F
:1005DE000000203F2000000010080808C83808005E
:1005EE002038262120201800000000FE0202020002
:1005FE000000007F40404000000C30C000000000B2
:10060E00000000010638C00000020202FE000000D9
:10061E00004040407F00000000000402020204007F
:10062E0000000000000000000000000000000000BC
:10063E0080808080808080800002020400000000A4
:10064E00000000000000000000008080808000009C
:10065E000019242222223F2008F80080800000008A
:10066E00003F112020110E0000000080808000004D
:10067E00000E112020201100000000808088F8005C
:10068E00000E112020103F2000008080808000008E
:10069E00001F222222221300008080F088888818F2
:1006AE000020203F202000000000808080808000FD
:1006BE00006B94949493600008F800808080000092
:1006CE00203F210000203F2000809898000000006D
:1006DE000020203F2020000000000080989800009D
:1006EE0000C08080807F000008F8000080808000BD
:1006FE00203F24022D302000000808F800000000E2
:10070E000020203F2020000080808080808080009C
:10071E00203F20003F20003F80800080808000002E
:10072E00203F210000203F200000808080800000BC
:10073E00001F202020201F008080008080000000ED
:10074E0080FFA12020110E0000000080808080001C
:10075E00000E112020A0FF8080808000808080000D
:10076E0020203F212000010000008080808080003A
:10077E000033242424241900008080E080800000AF
:10078E000000001F202000008080000000808000FC
:10079E00001F202020103F2080808000008080805D
:1007AE0000010E30080601008080008000808080ED
:1007BE000F300C030C300F00008080008080800012
:1007CE000020312E0E31200080808000008080803D
:1007DE0080818E70180601000080808080808000ED
:1007EE000021302C2221300000000000807C02020B
:1007FE0000000000003F404000000000FF0000002D
:10080E0000000000FF0000000002027C80000000DB
:10081E000040403F000000000006010102020404F7
:10082E0000000000000000000000F010101010FF8B
:10083E0010101010F000000000000000000000007A
:10084E00000000000000000000000F04040404FF7C
:10085E00040404040F00000000000000000000006B
:10086E0000000000000000004040405F55555575E7
:10087E005555555F4040400000000000000000004C
:10088E0000000000000000000040200F0949897997
:10089E000909090F204000000000000000000000C0
:1008AE00000000000000000000FE02424ACA4A4A50
:1008BE00CA4A4A4202FE000000000000000000008A
:1008CE00000000000000000000FF40504C4340407C
:1008DE004F50505C40FF0000000000000000000080
:1008EE0000000000000000000000F888888888FFE3
:1008FE0088888888F80000000000000000000000D2
:10090E00000000000000000000001F080808087F1B
:10091E00888888889F80F00000000000000000009A
:10092E00000000000000000080828282828282E24B
:10093E00A2928A86828080000000000000000000E3
:10094E000000000000000000000000000040807F5A
:10095E000000000000000000000000000000000089
:10096E0000000000000000002424A4FEA3220022A8
:10097E00CC0000FF0000000000000000000000009E
:10098E000000000000000000080601FF0001040442
:10099E00040404FF02020200000000000000000038
:1009AE000000000000000000101010FF10900888DA
:1009BE008888FF888888080000000000000000007A
:1009CE0000000000000000000444827F018080408F
:1009DE00432C10284681800000000000000000001B
:1009EE000000000000000000AED580A83FD30040FC
:1009FE008D142002A1C8DA1281EFD9F1DB30A4A642
:010A0E00AF38
:0316470024B0FFCD
:10164A008F3212180E7F78121712121697E4FF12B1
:10165A001712121697AF321217121216970218178C
:10159C00F583E582255CF582E43583F583E493FFDE
:1015AC008F3112180E7F781217121216977F401275
:1015BC001712121697AF311217121216970218172C
:1017AE008F68E568C4540F4410FF12164AE568545A
:0517BE000FFF02164AB6
:1016F20012181EE4F524C3E52494197480948050D2
:0F1702000EE5249009F693FF12164A052480E79E
:0117110022B5
:0214BB008F5E42
:1014BD00E4F55FC3E55F940874809480502AE55F7E
:1014CD00121647E4FF12164A7F1012164AE4F56011
:1014DD00C3E5609480748094805009AF5E1215ACA2
:0814ED00056080EC055F80CB77
:0114F50022D4
:10174E008F31ED121647E53154F0C4540F4410FF9B
:0B175E0012164AE531540FFF02164A34
:0F17E5007F8D12164A7F1412164A7FAF02164AE2
:0F17F4007F8D12164A7F1012164A7FAE02164AD8
:10144300E4F561C3E561940874809480502DE561EF
:1014530024B0FF12164AE4FF12164A7F1012164AEE
:10146300E4F562C3E5629480748094805009E4FFDC
:0B1473001215AC056280EC056180C81A
:01147E00224B
:10147F00E4F563C3E563940874809480502DE563AD
:10148F0024B0FF12164AE4FF12164A7F1012164AB2
:10149F00E4F564C3E56494807480948050097FFF01
:0B14AF001215AC056480EC056380C8DA
:0114BA00220F
:040E98008F2B8D2CE3
:100E9C00E4F52FF530EB24E0F52FD3EF947F74803D
:100EAC0094804007E4F52B052C052CE52E6410707E
:100EBC006CAD2CAF2B12174EE4F530C3E530940813
:100ECC0074809480502075F010E52FA42530F582A5
:100EDC00E435F0F583E5822446F582E5833402128D
:100EEC0015A7053080D5E52C04FDAF2B12174EE469
:100EFC00F530C3E530940874809480505075F01030
:100F0C00E52FA42530F582E435F0F583E582244EF7
:100F1C00F582E58334021215A7053080D5AD2CAFD0
:100F2C002B12174EE4F530C3E53094067480948090
:100F3C00501B75F006E52FA4241EF582E5F0340055
:0D0F4C00F583E58225301215A2053080DA0C
:010F59002275
:041530008F498D4A08
:10153400E4754E01F54DF54CF54BAF4A154AEF6095
:101544001BAB4EAA4DA94CA84BAF49E4FCFDFE12BF
:101554000C978F4E8E4D8D4C8C4B80DEAF4EAE4D26
:04156400AD4CAC4B93
:011568002260
:04106D008F338D34FC
:10107100E4F53DF53BE53BC39539506FC3E5399543
:101081003B14FD7F0A121530A804A905AA06AB0777
:10109100AF38AE37AD36AC35120D22E47B0AFAF922
:1010A100F8120D22AF038F3CE53D7023E53914FFA3
:1010B100E53BC39F5019E53C7012E53AC313853BEC
:1010C100F0A42533FF853A2E7B208016753D01E57E
:1010D1003AC313853BF0A42533FFE53C2430FB855F
:0B10E1003A2EAD34120E98053B808AB9
:0110EC0022E1
:0A1380008F248D258B268A278928EB
:10138A00E4F52AAB26AA27A928852A8275830012A2
:10139A000C58FB602485292EAD25AF24120E9874B3
:1013AA00082524F524D39478748094804007E4F5C2
:0913BA002405250525052A80CA39
:0113C3002207
:061278008F598D5A8B5BBB
:10127E00E4F55D12174EE4F55CC3E55C94107480E2
:10128E009480501775F040E55BA42436F582E5F0A6
:10129E00340812159C055D055C80DEE55A04FDAF31
:1012AE005912174EE4F55CC3E55C9410748094807B
:1012BE00501775F040E55BA42456F582E5F034082E
:0912CE0012159C055D055C80DE33
:0112D70022F4
:041155008F3E8B40FE
:10115900E4F545F546E5415407700BE541131313D2
:10116900541FF548800AE541131313541F04F54829
:101179008D48E548C395415035AD48AF3E12174EED
:10118900853E47E547C395405020AB42AA43A94451
:101199000546E546AE457002054514F5828E831273
:0E11A9000C58FF1215AC054780D9054880C4CC
:0111B7002215
:1012D800E4F566C3E5669408748094805048E56632
:1012E80024B0FF12164AE4FF12164A7F1012164A5B
:1012F800E4F565C3E565948074809480502475F0A6
:1013080080E566A42400F582E5F03400F583E582E3
:101318002565F582E43583F583E0FF1215AC056594
:0613280080D1056680ADD6
:01132E00229C
:1010ED00EFD3947F74809480505DED943F74809421
:1010FD00805054ED131313541FFEED5407FDF87477
:10110D0001088002C333D8FCFDEB75F080601AEE48
:10111D00A42400F582E5F03400F583E5822FF582F5
:10112D00E43583F583E04DF022EEA42400F582E54D
:10113D00F03400F583E5822FF582E43583F583E005
:07114D00FFEDF4FEEF5EF080
:011154002278
:04176900AC03AA051E
:10176D00A907E9C39C500CAF01AD027B011210ED2E
:03177D000980EFF1
:011780002246
:04178100AC07AA0304
:10178500A905E9C39A500CAF04AD017B011210ED18
:031795000980EFD9
:01179800222E
:1017C3007B647D3C7F021217697B3C7D027F0202B2
:0217D30017817C
:1014F600E4FFEFC3940874809480502DE4FEEEC39D
:10150600948074809480501E75F080EFA42400F5BA
:1015160082E5F03400F583E5822EF582E43583F525
:0915260083E4F00E80D80F80C9A7
:01152F002299
:100A0F00020C2AE86480F8E933E83360110460F0DF
:100A1F00ED33EC337009E8FCE9FDEAFEEBFF22044D
:100A2F0060DED3EB9FEA9EE99DE8C2E78CF0C2F748
:100A3F0095F0400CE8CCF8E9CDF9EACEFAEBCFFB14
:100A4F00120BF585D0F05804700320D5B3E804706D
:100A5F00075002B2D5020C3492D5EC0460F7E4CC07
:100A6F00C0E0C398F8603B94186008400DD0E0FBDD
:100A7F00020C0CE4FBFAC9FC8028E830E406E4C958
:100A8F00FBE4CAFCE830E305E4C9CACBFCE8540731
:100A9F006010F8C3E913F9EA13FAEB13FBEC13FC3C
:100AAF00D8F130F52FC3E49CFCEF9BFFEE9AFEEDDF
:100ABF0099FDD0E0FBEF4E4D4C701222DB03020C80
:100ACF0031EC2CFCEF33FFEE33FEED33FDED30E771
:100ADF00EB020C0CEF2BFFEE3AFEED39FDD0E0FBF5
:100AEF0050130BBB0003020C34ED13FDEE13FEEF9E
:080AFF0013FFEC13FC020C0CC8
:100B070074F8CC6480CCC86480C8F58204604FC395
:100B1700EB9FF5F0EA9E42F0E99D42F0E89C45F034
:100B2700603C501DE5825FFFE582D313CB5BCBF4BE
:100B37002B5582FB50280ABA002409B900200880E7
:100B47001DE5825BFBE582D313CF5FCFF4C3132F81
:100B57005582FF50090EBE00050DBD00010CC3EB09
:100B67009FF5F0EA9E42F0E99D42F0E89C45F0606F
:090B770007CC4820E701B3EC2291
:100B800075F020800E75F010800575F0087D007EF0
:100B9000007F003392D530D503120DB4EC334010F2
:100BA000EF33FFEE33FEED33FDEC33FCD5F0ED22F9
:0E0BB000E5F0247EA2D513CC92E7CDCEFF2235
:100BBE00EDD2E7CD33EC3392D524814006E4FFFE2F
:100BCE00FDFC22FCE4CFCECDCC24E0501174FF808E
:100BDE00EDC3CC13CCCD13CDCE13CECF13CF04702B
:070BEE00F030D5DE020DB46A
:100BF500E9D2E7C933E833F892D5EDD2E7CD33EC46
:070C050033FC5002B2D522BE
:100C0C00EC30E7100FBF000C0EBE00080DBD000449
:100C1C000BEB6014A2D5EB13FCED92E7FD2274FFF5
:100C2C00FCFDFEFF22E480F8A2D574FF13FC7D804E
:030C3C00E480EF62
:100F6600020FE6E493A3F8E493A34003F68001F2AC
:100F760008DFF48029E493A3F85407240CC8C3338C
:100F8600C4540F4420C8834004F456800146F6DF5B
:100F9600E4800B0102040810204080900003E47EE8
:100FA600019360BCA3FF543F30E509541FFEE49350
:100FB600A360010ECF54C025E060A840B8E493A317
:100FC600FAE493A3F8E493A3C8C582C8CAC583CA42
:100FD600F0A3C8C582C8CAC583CADFE9DEE780BEFA
:0100090000F6
:100C3F00BB010689828A83E0225002E722BBFE02B3
:090C4F00E32289828A83E49322E6
:100C5800BB010CE58229F582E5833AF583E0225051
:100C680006E92582F8E622BBFE06E92582F8E2229B
:0D0C7800E58229F582E5833AF583E49322B5
:100C8500BB010689828A83F0225002F722BBFE014E
:020C9500F32248
:100C9700E88FF0A4CC8BF0A42CFCE98EF0A42CFCFC
:100CA7008AF0EDA42CFCEA8EF0A4CDA8F08BF0A47A
:100CB7002DCC3825F0FDE98FF0A42CCD35F0FCEBD9
:100CC7008EF0A4FEA9F0EB8FF0A4CFC5F02ECD399E
:0F0CD700FEE43CFCEAA42DCE35F0FDE43CFC220B
:100CE60075F008758200EF2FFFEE33FECD33CDCCC5
:100CF60033CCC58233C5829BED9AEC99E582984048
:100D06000CF582EE9BFEED9AFDEC99FC0FD5F0D624
:100D1600E4CEFBE4CDFAE4CCF9A88222B800C1B94E
:100D26000059BA002DEC8BF084CFCECDFCE5F0CB8C
:100D3600F97818EF2FFFEE33FEED33FDEC33FCEBC5
:100D460033FB10D703994004EB99FB0FD8E5E4F980
:100D5600FA227818EF2FFFEE33FEED33FDEC33FC6D
:100D6600C933C910D7059BE99A4007EC9BFCE99A61
:100D7600F90FD8E0E4C9FAE4CCFB2275F010EF2FA6
:100D8600FFEE33FEED33FDCC33CCC833C810D707A6
:100D96009BEC9AE899400AED9BFDEC9AFCE899F8E1
:0E0DA6000FD5F0DAE4CDFBE4CCFAE4C8F92274
:0E0DB400C3E49FFFE49EFEE49DFDE49CFC2250
:0C0DC200ECF608EDF608EEF608EFF6225D
:0C000E00EE30E707C3E49FFFE49EFE22F3
:00000001FF
